{
  "contractName": "CVExplorer",
  "abi": [
    {
      "anonymous": false,
      "inputs": [
        {
          "indexed": false,
          "internalType": "string",
          "name": "message",
          "type": "string"
        }
      ],
      "name": "AllCVsDeleted",
      "type": "event"
    },
    {
      "anonymous": false,
      "inputs": [
        {
          "indexed": false,
          "internalType": "string",
          "name": "message",
          "type": "string"
        }
      ],
      "name": "CVDeleted",
      "type": "event"
    },
    {
      "anonymous": false,
      "inputs": [
        {
          "indexed": false,
          "internalType": "string",
          "name": "message",
          "type": "string"
        }
      ],
      "name": "CVSaved",
      "type": "event"
    },
    {
      "inputs": [
        {
          "internalType": "address",
          "name": "",
          "type": "address"
        }
      ],
      "name": "numberOfCVs",
      "outputs": [
        {
          "internalType": "uint256",
          "name": "",
          "type": "uint256"
        }
      ],
      "stateMutability": "view",
      "type": "function"
    },
    {
      "inputs": [],
      "name": "numberOfUsers",
      "outputs": [
        {
          "internalType": "uint256",
          "name": "",
          "type": "uint256"
        }
      ],
      "stateMutability": "view",
      "type": "function"
    },
    {
      "inputs": [
        {
          "internalType": "address",
          "name": "",
          "type": "address"
        },
        {
          "internalType": "uint256",
          "name": "",
          "type": "uint256"
        }
      ],
      "name": "userCVs",
      "outputs": [
        {
          "internalType": "uint256",
          "name": "id",
          "type": "uint256"
        },
        {
          "internalType": "string",
          "name": "name",
          "type": "string"
        },
        {
          "internalType": "string",
          "name": "surname",
          "type": "string"
        },
        {
          "internalType": "uint256",
          "name": "age",
          "type": "uint256"
        },
        {
          "internalType": "string",
          "name": "location",
          "type": "string"
        },
        {
          "internalType": "string",
          "name": "contactInformation",
          "type": "string"
        },
        {
          "internalType": "string",
          "name": "jobTitle",
          "type": "string"
        },
        {
          "internalType": "string",
          "name": "experiences",
          "type": "string"
        }
      ],
      "stateMutability": "view",
      "type": "function"
    },
    {
      "inputs": [
        {
          "internalType": "uint256",
          "name": "",
          "type": "uint256"
        }
      ],
      "name": "users",
      "outputs": [
        {
          "internalType": "address",
          "name": "",
          "type": "address"
        }
      ],
      "stateMutability": "view",
      "type": "function"
    },
    {
      "inputs": [
        {
          "internalType": "string",
          "name": "name",
          "type": "string"
        },
        {
          "internalType": "string",
          "name": "surname",
          "type": "string"
        },
        {
          "internalType": "uint256",
          "name": "age",
          "type": "uint256"
        },
        {
          "internalType": "string",
          "name": "location",
          "type": "string"
        },
        {
          "internalType": "string",
          "name": "contactInformation",
          "type": "string"
        },
        {
          "internalType": "string",
          "name": "jobTitle",
          "type": "string"
        },
        {
          "internalType": "string",
          "name": "experiences",
          "type": "string"
        }
      ],
      "name": "saveCV",
      "outputs": [],
      "stateMutability": "nonpayable",
      "type": "function"
    },
    {
      "inputs": [
        {
          "internalType": "uint256",
          "name": "id",
          "type": "uint256"
        }
      ],
      "name": "deleteCV",
      "outputs": [],
      "stateMutability": "nonpayable",
      "type": "function"
    },
    {
      "inputs": [],
      "name": "deleteAllCVs",
      "outputs": [],
      "stateMutability": "nonpayable",
      "type": "function"
    }
  ],
  "bytecode": "0x608060405234801561001057600080fd5b50610d41806100206000396000f3fe608060405234801561001057600080fd5b506004361061007d5760003560e01c806373eba1941161005b57806373eba194146100dc57806375ce46a7146100ef578063cb1a144114610104578063f384071b146101175761007d565b8063365b98b21461008257806346a77f22146100ab578063626284f4146100b5575b600080fd5b610095610090366004610ada565b61012a565b6040516100a29190610b3d565b60405180910390f35b6100b3610145565b005b6100c86100c33660046109b8565b61023a565b6040516100a2989796959493929190610bdf565b6100b36100ea366004610ada565b6105b2565b6100f7610697565b6040516100a29190610bd6565b6100f7610112366004610997565b61069d565b6100b36101253660046109e1565b6106af565b6002602052600090815260409020546001600160a01b031681565b60005b336000908152602081905260409020548110156101ef573360009081526001602081815260408084208585529091528220828155919061018a90830182610822565b610198600283016000610822565b60038201600090556004820160006101b09190610822565b6101be600583016000610822565b6101cc600683016000610822565b6101da600783016000610822565b505080806101e790610cc4565b915050610148565b503360009081526020819052604080822091909155517f802474fbe0af70b81955b845b32507a144b2069e7b55499ea62fc35510502a089061023090610bac565b60405180910390a1565b600160208181526000938452604080852090915291835291208054918101805461026390610c89565b80601f016020809104026020016040519081016040528092919081815260200182805461028f90610c89565b80156102dc5780601f106102b1576101008083540402835291602001916102dc565b820191906000526020600020905b8154815290600101906020018083116102bf57829003601f168201915b5050505050908060020180546102f190610c89565b80601f016020809104026020016040519081016040528092919081815260200182805461031d90610c89565b801561036a5780601f1061033f5761010080835404028352916020019161036a565b820191906000526020600020905b81548152906001019060200180831161034d57829003601f168201915b50505050509080600301549080600401805461038590610c89565b80601f01602080910402602001604051908101604052809291908181526020018280546103b190610c89565b80156103fe5780601f106103d3576101008083540402835291602001916103fe565b820191906000526020600020905b8154815290600101906020018083116103e157829003601f168201915b50505050509080600501805461041390610c89565b80601f016020809104026020016040519081016040528092919081815260200182805461043f90610c89565b801561048c5780601f106104615761010080835404028352916020019161048c565b820191906000526020600020905b81548152906001019060200180831161046f57829003601f168201915b5050505050908060060180546104a190610c89565b80601f01602080910402602001604051908101604052809291908181526020018280546104cd90610c89565b801561051a5780601f106104ef5761010080835404028352916020019161051a565b820191906000526020600020905b8154815290600101906020018083116104fd57829003601f168201915b50505050509080600701805461052f90610c89565b80601f016020809104026020016040519081016040528092919081815260200182805461055b90610c89565b80156105a85780601f1061057d576101008083540402835291602001916105a8565b820191906000526020600020905b81548152906001019060200180831161058b57829003601f168201915b5050505050905088565b336000908152600160208181526040808420858552909152822082815591906105dd90830182610822565b6105eb600283016000610822565b60038201600090556004820160006106039190610822565b610611600583016000610822565b61061f600683016000610822565b61062d600783016000610822565b50503360009081526020819052604090205461064b90600190610c72565b336000908152602081905260409081902091909155517f6bc9f925e4fd25a50a0ae5316f527169611bee10ae14cffad1e6291fbaf0872b9061068c90610b51565b60405180910390a150565b60035481565b60006020819052908152604090205481565b33600081815260208181526040808320548151610100810183528181528084018d81528184018d9052606082018c9052608082018b905260a082018a905260c0820189905260e082018890529585526001808552838620838752855292909420845181559451805191959361072993850192910190610861565b5060408201518051610745916002840191602090910190610861565b50606082015160038201556080820151805161076b916004840191602090910190610861565b5060a08201518051610787916005840191602090910190610861565b5060c082015180516107a3916006840191602090910190610861565b5060e082015180516107bf916007840191602090910190610861565b509050507fa4297f3be67b80cb9d6ec43d5ffc92d5d79bae6064e6e59c5f2696c3398bdd246040516107f090610b75565b60405180910390a133600090815260208190526040812080549161081383610cc4565b91905055505050505050505050565b50805461082e90610c89565b6000825580601f10610840575061085e565b601f01602090049060005260206000209081019061085e91906108e5565b50565b82805461086d90610c89565b90600052602060002090601f01602090048101928261088f57600085556108d5565b82601f106108a857805160ff19168380011785556108d5565b828001600101855582156108d5579182015b828111156108d55782518255916020019190600101906108ba565b506108e19291506108e5565b5090565b5b808211156108e157600081556001016108e6565b80356001600160a01b038116811461091157600080fd5b919050565b600082601f830112610926578081fd5b813567ffffffffffffffff8082111561094157610941610cf5565b604051601f8301601f19168101602001828111828210171561096557610965610cf5565b60405282815284830160200186101561097c578384fd5b82602086016020830137918201602001929092529392505050565b6000602082840312156109a8578081fd5b6109b1826108fa565b9392505050565b600080604083850312156109ca578081fd5b6109d3836108fa565b946020939093013593505050565b600080600080600080600060e0888a0312156109fb578283fd5b873567ffffffffffffffff80821115610a12578485fd5b610a1e8b838c01610916565b985060208a0135915080821115610a33578485fd5b610a3f8b838c01610916565b975060408a0135965060608a0135915080821115610a5b578485fd5b610a678b838c01610916565b955060808a0135915080821115610a7c578485fd5b610a888b838c01610916565b945060a08a0135915080821115610a9d578384fd5b610aa98b838c01610916565b935060c08a0135915080821115610abe578283fd5b50610acb8a828b01610916565b91505092959891949750929550565b600060208284031215610aeb578081fd5b5035919050565b60008151808452815b81811015610b1757602081850181015186830182015201610afb565b81811115610b285782602083870101525b50601f01601f19169290920160200192915050565b6001600160a01b0391909116815260200190565b6020808252600a90820152692232b632ba32b21021ab60b11b604082015260600190565b6020808252601f908201527f5375636365737366756c6c7920736176656420796f7572206e65772043562e00604082015260600190565b60208082526010908201526f2232b632ba32b21030b6361021ab399760811b604082015260600190565b90815260200190565b60006101008a8352806020840152610bf98184018b610af2565b90508281036040840152610c0d818a610af2565b90508760608401528281036080840152610c278188610af2565b905082810360a0840152610c3b8187610af2565b905082810360c0840152610c4f8186610af2565b905082810360e0840152610c638185610af2565b9b9a5050505050505050505050565b600082821015610c8457610c84610cdf565b500390565b600281046001821680610c9d57607f821691505b60208210811415610cbe57634e487b7160e01b600052602260045260246000fd5b50919050565b6000600019821415610cd857610cd8610cdf565b5060010190565b634e487b7160e01b600052601160045260246000fd5b634e487b7160e01b600052604160045260246000fdfea264697066735822122081c4a9660c7f52d097a35158966ec2e0ef2e4b51a3f1473535cced1b7f3fa36264736f6c63430008000033",
  "immutableReferences": {},
  "source": "// SPDX-License-Identifier: UNLICENSED\r\npragma solidity ^0.8.0;\r\n\r\ncontract CVExplorer{\r\n\r\n    event CVSaved(string message);\r\n    event CVDeleted(string message);\r\n    event AllCVsDeleted(string message);\r\n\r\n    mapping( address => uint) public numberOfCVs;\r\n    mapping( address => mapping( uint => CV)) public userCVs;\r\n\r\n    mapping( uint => address) public users;\r\n    uint public numberOfUsers;\r\n\r\n    struct CV {\r\n        uint id;\r\n        string name;\r\n        string surname;\r\n        uint age;\r\n        string location;\r\n        string contactInformation;\r\n        string jobTitle;\r\n        string experiences;\r\n    }\r\n    function saveCV(\r\n        string memory name,\r\n        string memory surname,\r\n        uint age,\r\n        string memory location,\r\n        string memory contactInformation,\r\n        string memory jobTitle,\r\n        string memory experiences\r\n\r\n    ) public {\r\n        uint cvCount = numberOfCVs[msg.sender];\r\n        userCVs[msg.sender][cvCount] = CV(cvCount, name, surname, age, location, contactInformation, jobTitle, experiences);\r\n        emit CVSaved(\"Successfully saved your new CV.\");\r\n        numberOfCVs[msg.sender]++;\r\n    }\r\n\r\n    function deleteCV(uint id) public{\r\n        delete userCVs[msg.sender][id];\r\n        numberOfCVs[msg.sender] = numberOfCVs[msg.sender] - 1;\r\n\r\n        emit CVDeleted(\"Deleted CV\");\r\n    }\r\n\r\n    function deleteAllCVs() public {\r\n\r\n        for (uint id=0; id<numberOfCVs[msg.sender]; id++){\r\n            delete userCVs[msg.sender][id];\r\n        }\r\n\r\n        numberOfCVs[msg.sender] = 0;\r\n\r\n        emit AllCVsDeleted(\"Deleted all CVs.\");\r\n    }\r\n}",
  "sourcePath": "C:\\Users\\marti\\IdeaProjects\\FINKI Project\\BlockChainProject_\\blockchain\\contracts\\CVExplorer.sol",
  "compiler": {
    "name": "solc",
    "version": "0.8.0+commit.c7dfd78e.Emscripten.clang"
  },
  "schemaVersion": "3.4.11",
  "updatedAt": "2023-02-23T23:48:01.562Z",
  "devdoc": {
    "kind": "dev",
    "methods": {},
    "version": 1
  },
  "userdoc": {
    "kind": "user",
    "methods": {},
    "version": 1
  }
}